:100000001AC034C033C032C031C030C02FC02EC07F
:1000100092C12CC02BC02AC029C028C0ADC126C0A7
:1000200025C024C023C0E4E1C4E1F6EFD6EFFCF51F
:10003000DCF5DFE2B0DF11241FBECFE5D4E0DEBF88
:10004000CDBF10E0A0E6B0E0E4EAF9E002C0059020
:100050000D92A23CB107D9F721E0A2ECB0E001C0BB
:100060001D92AD31B207E1F7DDD19AC4C9CF84FF4B
:1000700002C0949A01C0949885FF02C0959A01C06D
:10008000959886FF02C0969A01C09698882314F42A
:10009000979A01C0979885E08A95F1F70000C29A77
:1000A00085E08A95F1F70000C2980895CF93C82F94
:1000B00085ED8A95F1F700008C2FD9DF8C2F829582
:1000C000807FD5DFCF910895C09AF0DF0895C09862
:1000D000EDDF0895CF93DF93813108F080E1C62FE3
:1000E000633008F0C2E0811101C081E0CC23B1F09F
:1000F0008093D800C0930C01C150DFEFD80FC0FD32
:1001000002C0815801C08154C1FD8C5EE0DF80E1F6
:10011000C89FD00D1124D093D90009C08093D80076
:1001200091E090930C01DFEFD80F8158EFCFDF9172
:10013000CF9108958CE0CBDF089581E0C8DF8FE395
:100140009FE10197F1F700C0000082E0C0DF8FE37C
:100150009FE10197F1F700C0000081E08093D80093
:1001600080930C0180910A01882349F0EAEDF0E0C8
:100170002AEF30E080E28193E217F307E1F7109273
:10018000D9000895E6E2F0E0E4918E1749F022E00C
:1001900030E0F901EA5DFF4FE491E81308C002C0C6
:1001A00020E030E0F901E95DFF4F849108952E5F72
:1001B0003F4F2031310569F7089560910C0181E0CE
:1001C00089DF0895CF939091D800913190F4DADFD0
:1001D000C82F7ADF8091D8008F5F8093D8008091FC
:1001E000D900E82FF0E0E652FF4FC0838F5F809385
:1001F000D90021E030E08091D800813110F420E076
:1002000030E09091CF00892F90E082239323892BB7
:1002100011F0D3DF02D0CF910895CF9360910C01FC
:10022000623089F410920A0188DF8FEF80930A010F
:10023000C0E1E091D900F0E0E652FF4F8089C2DFD3
:10024000C150B9F704C06F5F8091D80043DFCF91F0
:1002500008958A3021F08D3021F4AFDF0895DDDF7D
:100260000895B0DF0895CF93C298BA9AC098B89A0B
:10027000C198B99A8C9A8D9A8E9A8F9A8FE59AEE38
:100280000197F1F700C000008FE59AEE0197F1F7B2
:1002900000C0000080E3EBDE8FE59AEE0197F1F7F6
:1002A00000C0000080E3E3DE8FE59AEE0197F1F7EE
:1002B00000C0000080E3DBDE8FE59AEE0197F1F7E6
:1002C00000C0000080E2D3DE88E201DF88E0FFDECC
:1002D00031DF86E0FCDECFEFC0930A012EDFC09352
:1002E000CF00CF910895CF93DF93EC0188818823CD
:1002F00029F02196AEDF89918111FCCFDF91CF915A
:1003000008953998389A08953898399A0895F9DFF8
:10031000369A0895F9DF369A08958A30910524F4C3
:100320008CE690E0E0DF0895843691051CF48DE6BC
:1003300090E0D9DF08951F920F920FB60F9211240B
:100340008F939F938FE89DEF9DBD8CBD8FB780935A
:100350000B018091C2009091C30001969093C3005D
:100360008093C20080910B018FBF9F918F910F905E
:100370000FBE0F901F9018951F920F920FB60F92FD
:1003800011242F933F934F935F936F937F938F939A
:100390009F93AF93BF93EF93FF938FB780930B011E
:1003A0008091CA00811109C085B18093CE0081E09F
:1003B0008093CA00A9DF369A13C085B18093CD001F
:1003C0001092CA009EDF9091CE008091CC008917D8
:1003D00038F09091CD008091CB00891708F0369AC3
:1003E00080910B018FBFFF91EF91BF91AF919F91D2
:1003F0008F917F916F915F914F913F912F910F90CE
:100400000FBE0F901F90189517B887B1816687B9F6
:1004100016B886B1876886B9089587B3806387BBAD
:1004200015BA08950FB6F894A89581B5886181BD75
:1004300011BC0FBE7894F1DFE7DF15DF62E081E0E9
:1004400049DE8FE690E04FDF2FEF47EA51E621507B
:1004500040405040E1F700C000008EB584608EBD82
:100460008FE89DEF9DBD8CBD89B7846089BF65DE37
:100470008DE790E038DF4EDF6FEF89EF90E061505D
:1004800080409040E1F700C0000085B18E5F80930E
:10049000CB003DDF2FEF49EF50E02150404050406E
:1004A000E1F700C0000085B18E5F8093CC004AE088
:1004B0006DE071E090E041D240DE8CE890E013DF27
:1004C0008DE091E010DF62E081E004DE8091CB00FE
:1004D0004AE06DE071E090E030D285E990E003DF22
:1004E0008DE091E000DF6FEF8BE792E96150804093
:1004F0009040E1F700C00000C9E0D0E01EDE4AE015
:100500006DE071E0CE0119D261E088E0E3DD8DE0BD
:1005100091E0E9DE2FEF43ED50E3215040405040A1
:10052000E1F700C00000219749F707DE62E087E0AD
:10053000D1DD8EE990E0D7DE8091C2009091C300BA
:100540009093C7008093C6009093C5008093C40029
:10055000339A369AC12CD12CD0E0FF24F394C1E019
:10056000E12CFF2019F0C598FE2C02C0C59AFC2E84
:100570009B9B12C06FEF80E792E0615080409040FB
:10058000E1F700C000009B99FECFDD2319F0C4986D
:10059000DE2D02C0C49ADC2F9091CE008091CC0059
:1005A000891798F58091C2009091C3002091C600F0
:1005B0003091C7002817390740F4AC01421B530B98
:1005C00050936B0040936A0007C0AC01421B530B71
:1005D00050936B0040936A009093C7008093C600CD
:1005E00080916A0090916B008932910570F0C09300
:1005F000C900D39420916600309167008217930759
:1006000020F490936700809366009091CD008091D4
:10061000CB00891798F58091C2009091C30020917A
:10062000C4003091C5008217930740F0AC01421B13
:10063000530B509369004093680007C0AC01421B04
:10064000530B50936900409368009093C5008093CA
:10065000C40080916800909169008932910570F022
:10066000C093C800C3942091640030916500821744
:10067000930720F49093650080936400369A8091EC
:10068000C900882309F45AC0D11146C140916A00BB
:1006900050916B0044365105E8F09A013695279544
:1006A00036952795ABE7B4E13CD18C0116950795BB
:1006B0006CE96003C001619F900D1124480F591F20
:1006C00050936B0040936A004AE06AEF70E0C80103
:1006D00034D108C04AE06AEF70E080E090E02DD1AC
:1006E00000E010E04AE06DE071E080916A009091D6
:1006F0006B0023D16C2F8C2FEDDC84EA90E0F3DDCE
:10070000C8010BDE8AEF90E0EEDD8AE890E0EBDDD9
:100710008DE091E0E8DD4AE060ED70E08D2D90E045
:100720000CD16C2F8EE0D6DC80ED90E0DCDDE09229
:10073000C9008091C800811108C013CF8091C80002
:10074000882309F457C0D11158C0409168005091D6
:10075000690044365105E8F09A013695279536959B
:100760002795ABE7B4E1DDD08C01169507952CE910
:100770002003C001219F900D1124480F591F509351
:100780006900409368004AE06AEF70E0C801D5D084
:1007900008C04AE06AEF70E080E090E0CED000E070
:1007A00010E04AE06DE071E080916800909169008E
:1007B000C4D062E08C2F8EDC8BEA90E094DDC8011F
:1007C000ACDD8AEF90E08FDD8AE890E08CDD8DE093
:1007D00091E089DD4AE060ED70E08C2D90E0ADD0D5
:1007E00062E08EE077DC80ED90E07DDDE092C80095
:1007F000DE2DB7CEDD2309F4B4CE00916600109152
:10080000670080916200909163008017910761F406
:1008100020916000309161008091640090916500AA
:100820002817390709F49DCE1093630000936200E6
:1008300004361105C0F09801369527953695279511
:10084000ABE7B4E16ED0969587956CE9AC01640393
:100850009001659F300D1124020F131F4AE06AEFCB
:1008600070E06BD006C04AE06AEF70E080E090E094
:1008700064D063DC4AE06DE071E0C8015ED06C2FAB
:100880008C2F28DC82EB90E02EDD8AEF90E02BDDD0
:100890008AE890E028DD8DE091E025DD009164009C
:1008A00010916500109361000093600004361105FB
:1008B000C0F098013695279536952795ABE7B4E1BA
:1008C00030D0969587956CE9AC0164039001659FE3
:1008D000300D1124020F131F4AE06AEF70E02DD093
:1008E00006C04AE06AEF70E080E090E026D04AE07F
:1008F0006DE071E0C80121D062E08C2FEBDB8AEB68
:1009000090E0F1DC8AEF90E0EEDC8AE890E0EBDC4E
:100910008DE091E0E8DC25CE8091C80081116DCF9B
:1009200069CFA29FB001B39FC001A39F01D0B29F26
:10093000700D811D1124911D0895BB274A3031F49B
:10094000992322F4BDE2909581959F4F01C0BB276A
:10095000FB015527AA27880F991FAA1FA41710F07B
:10096000A41B83955051B9F7A05DAA3308F0A95D87
:10097000A193009779F7B111B1931192CB0100C007
:10098000DC01FC01672F71917723E1F7329704C0F6
:100990007C916D9370836291AE17BF07C8F3089581
:0409A000F894FFCFF9
:1009A400FFFFFFFFFFFFFFFFFFFFFFFF20200053BC
:1009B40070656564204D6F6E69746F720043616C7D
:1009C4006962726174696F6E2E2E2E004B616C69C0
:1009D40062313A20004B616C6962323A2000474F21
:1009E4002021210054696D65313A0054696D6532E6
:1009F4003A0042657374313A200042657374323AA6
:020A04002000D0
:00000001FF
